:03000000020149B1
:0C014900787FE4F6D8FD75812302019058
:08039C0012037E1201D580FB63
:0B037E001203897F021202120202EC3F
:1001D5007B007A00790912024DEC4D4E4F60117B80
:1001E500007A0079097FE87E037D007C001202D049
:1001F5007DFF7F021203077FFF12033C8F08EF6428
:0D020500027005C2D8C2D922D2D8D2D922A7
:10027D00EFFD7C00D394027480948040037F0122B3
:10028D00ED4C700A43D90153DAFED2D8800DEF64DC
:0E029D0001700843D90253DAFDD2D97F002246
:0703A400120003FF02027DBD
:020212008F1D3E
:10021400D3EF94027480948040037F0122E4F5219B
:10022400E521C3951D501674222521F8A6217422B8
:100234002521F9E4FAFB1203A4052180E3E52165F5
:080244001D60037F01227F0011
:01024C00228F
:0103B2001238
:1002EC009003B2E49370061203531202AB9003B264
:0B02FC00E49370061203531202AB22C1
:0602AB007C037DB27FFF21
:1002B10075FEC243FF0C8FF58CF3AF058FF275F11C
:0F02C100F075F60A0000000075FEC253FFF3222D
:10036A00EF25E0FFEE33FEE42FF582E43EF58374D9
:03037A000193FFED
:01037D00225D
:10030700C2AF75F4028FF5E4F5F38DF275F1F07570
:0B031700F60A00000000F5F4D2AF224F
:10033C00C2AF75F402E42FF582E43400F583E49344
:06034C00FFE4F5F4D2AF5E
:010352002288
:10035300E4FEEEC3948074809480500AAD06E4FFFB
:060363001203070E80ECFE
:010369002271
:0603AB000419000000002F
:0A038900E4F51CF51BF51AF5192226
:10032200AF1CAE1BAD1AAC19EF2401F51CE43EF56F
:0A0332001BE43DF51AE43CF5192226
:09039300AF1CAE1BAD1AAC19221F
:1002D0008F208E1F8D1E8C1D12039312005DAF2088
:0C02E000AE1FAD1EAC1D900004020077A4
:10024D008B1D8A1E891F90000412002D12009BC366
:10025D00E51C9BFBE51B9AFAE51A99F9E51998F847
:10026D00C312001CE440047F018001FFFEFDFC224F
:1001550002039CE493A3F8E493A34003F68001F221
:1001650008DFF48029E493A3F85407240CC8C333AB
:10017500C4540F4420C8834004F456800146F6DF7A
:10018500E4800B01020408102040809003ABE47E5C
:10019500019360BCA3FF543F30E509541FFEE4936F
:1001A500A360010ECF54C025E060A840B8E493A336
:1001B500FAE493A3F8E493A3C8C582C8CAC583CA61
:1001C500F0A3C8C582C8CAC583CADFE9DEE780BE19
:0103B100004B
:10000300BB010689828A83E0225002E722BBFE02FB
:09001300E32289828A83E493222E
:10001C00EB9FF5F0EA9E42F0E99D42F0E89C45F03A
:01002C0022B1
:10002D00BB010DE58229F582E5833AF5830200C710
:10003D005007E92582F80200BBBBFE07E92582F8CF
:10004D000200D3E58229F582E5833AF5830200DFCC
:10005D00BB010789828A830201315005E9F802014B
:0A006D0025BBFE05E9F802013D2263
:10007700BB010DE58229F582E5833AF5830201315B
:100087005007E92582F8020125BBFE07E92582F81A
:0400970002013D2203
:10009B00BB010789828A830200FC5005E9F8020044
:1000AB00EFBBFE05E9F802010889828A830201157C
:0C00BB00E6FC08E6FD08E6FE08E6FF2271
:0C00C700E0FCA3E0FDA3E0FEA3E0FF22AC
:0C00D300E2FC08E2FD08E2FE08E2FF2269
:1000DF00E493FC740193FD740293FE740393FF2267
:0D00EF00E6FB08E6F908E6FA08E6CBF82281
:0C00FC00E0F8A3E0F9A3E0FAA3E0FB2287
:0D010800E2FB08E2F908E2FA08E2CBF82277
:10011500E493F8740193F9740293FA740393FB2240
:0C012500ECF608EDF608EEF608EFF62206
:0C013100ECF0A3EDF0A3EEF0A3EFF02241
:0C013D00ECF208EDF208EEF208EFF222FE
:00000001FF
